<!DOCTYPE html>
<html lang="en"><head>
  <meta charset="utf-8" />
  <meta http-equiv="X-UA-Compatible" content="IE=edge" />
  <meta name="viewport" content="width=device-width, initial-scale=1" />
  
  <title>Described Data | Ethereum Improvement Proposals</title>
    <meta
      property="og:title"
      content="Described Data | Ethereum Improvement Proposals"
    />
    <meta name="description" content="Ethereum Improvement Proposals (EIPs) describe standards for the Ethereum platform, including core protocol specifications, client APIs, and contract standards." />
    <meta property="og:description" content="Ethereum Improvement Proposals (EIPs) describe standards for the Ethereum platform, including core protocol specifications, client APIs, and contract standards." />
    <meta name="twitter:description" content="Ethereum Improvement Proposals (EIPs) describe standards for the Ethereum platform, including core protocol specifications, client APIs, and contract standards." />
  
  <meta name="generator" content="Jekyll" />
  <meta property="og:locale" content="en_US" />
  <link rel="canonical" href="http://localhost:4000/ERCS/erc-3224" />
  <meta property="og:url" content="http://localhost:4000/ERCS/erc-3224" />
  <meta property="og:site_name" content="Ethereum Improvement Proposals" />
  <meta name="twitter:card" content="summary" />
  <meta name="twitter:site" content="@" />
  <script type="application/ld+json">
    {
      "@type": "WebSite",
      "url": "http://localhost:4000",
      "name": "Ethereum Improvement Proposals",
      "description": "Ethereum Improvement Proposals (EIPs) describe standards for the Ethereum platform, including core protocol specifications, client APIs, and contract standards.",
      "@context": "https://schema.org"
    }
  </script>
  <link rel="stylesheet" href="/assets/css/style.css" /><link type="application/atom+xml" rel="alternate" href="http://localhost:4000/feed.xml" title="Ethereum Improvement Proposals" /><link href="https://cdn.jsdelivr.net/npm/bootstrap@5.3.1/dist/css/bootstrap.min.css" rel="stylesheet" integrity="sha384-4bw+/aepP/YC94hEpVNVgiZdgIC5+VKNBQNGCHeKRQN+PtmoHDEXuppvnDJzQIu9" crossorigin="anonymous">
  <link rel="stylesheet" href="/assets/css/override.css" />
  <script src="https://polyfill.io/v3/polyfill.min.js?features=es6"></script>
  <script src="https://cdn.jsdelivr.net/npm/@popperjs/core@2.11.6/dist/umd/popper.min.js" integrity="sha384-oBqDVmMz9ATKxIep9tiCxS/Z9fNfEXiDAYTujMAeBAsjFuCZSmKbSSUnQlmh/jp3" crossorigin="anonymous"></script>
  <script src="https://cdn.jsdelivr.net/npm/bootstrap@5.3.1/dist/js/bootstrap.min.js" integrity="sha384-Rx+T1VzGupg4BHQYs2gCW9It+akI2MM/mndMCy36UVfodzcJcF0GGLxZIzObiEfa" crossorigin="anonymous"></script>
  <script type="text/javascript">
    document.addEventListener("DOMContentLoaded", (event) => {
      const tooltipTriggerList = document.querySelectorAll('[data-bs-toggle="tooltip"]')
      const tooltipList = [...tooltipTriggerList].map(tooltipTriggerEl => new bootstrap.Tooltip(tooltipTriggerEl))
    });
  </script>
  <script type="text/javascript">
    window.MathJax = {
      loader: {
        load: ['input/tex-base', 'output/chtml']
      },
      tex: {
        inlineMath: [['$', '$']],
        displayMath: [['$$', '$$']],
        processEscapes: true,
        processEnvironments: false,
        processRefs: false
      }
    };
  </script>
  <script id="MathJax-script" async src="https://cdn.jsdelivr.net/npm/mathjax@3.0.1/es5/tex-mml-chtml.js" integrity="sha384-/1zmJ1mBdfKIOnwPxpdG6yaRrxP6qu3eVYm0cz2nOx+AcL4d3AqEFrwcqGZVVroG" crossorigin="anonymous"></script>
  <script src="https://cdnjs.cloudflare.com/ajax/libs/citation-js/0.6.7/citation.min.js" integrity="sha512-N+LDFMa9owHXGS+CyMrBvuxq2QuGl3fiB/7cys3aUEL7K6P1soHGqsS0sjHXZpwNd9Kz0m3R4IPy1HYRi6ROEQ==" crossorigin="anonymous" referrerpolicy="no-referrer"></script>
  <script type="text/javascript">
    addEventListener('DOMContentLoaded', async () => {
      const Cite = window.require('citation-js');
      const citationElements = document.querySelectorAll('.language-csl-json');
      for (let citationElement of citationElements) {
        try {
          const citation = await Cite.async(citationElement);
          const template = document.createElement('template');
          template.innerHTML = citation.format('bibliography', {
            format: 'html',
            template: 'apa',
            lang: 'en-US'
          });
          if (citationElement.parentElement && citationElement.parentElement.matches('pre')) {
            citationElement.parentElement.replaceWith(template.content);
          } else {
            citationElement.replaceWith(template.content);
          }
        } catch (e) {
          console.error("unable to render citation", e);
        }
      }
    });
  </script>
</head>
<body><header class="site-header" role="banner">
  <div class="wrapper"><a class="site-title" rel="author" href="/">Ethereum Improvement Proposals</a><nav class="site-nav d-flex">
        <input type="checkbox" id="nav-trigger" class="nav-trigger" />
        <label for="nav-trigger">
          <span class="menu-icon">
            <svg viewBox="0 0 18 15" width="18px" height="15px">
              <path d="M18,1.484c0,0.82-0.665,1.484-1.484,1.484H1.484C0.665,2.969,0,2.304,0,1.484l0,0C0,0.665,0.665,0,1.484,0 h15.032C17.335,0,18,0.665,18,1.484L18,1.484z M18,7.516C18,8.335,17.335,9,16.516,9H1.484C0.665,9,0,8.335,0,7.516l0,0 c0-0.82,0.665-1.484,1.484-1.484h15.032C17.335,6.031,18,6.696,18,7.516L18,7.516z M18,13.516C18,14.335,17.335,15,16.516,15H1.484 C0.665,15,0,14.335,0,13.516l0,0c0-0.82,0.665-1.483,1.484-1.483h15.032C17.335,12.031,18,12.695,18,13.516L18,13.516z"/>
            </svg>
          </span>
        </label>

        <div class="trigger row p-2"><a class="page-link col" href="/all">All</a><a class="page-link col" href="/core">Core</a><a class="page-link col" href="/networking">Networking</a><a class="page-link col" href="/interface">Interface</a><a class="page-link col" href="/erc">ERC</a><a class="page-link col" href="/meta">Meta</a><a class="page-link col" href="/informational">Informational</a></div>
      </nav></div>
</header>
<main class="page-content" aria-label="Content">
      <div class="wrapper">
        <article class="post">

  <header class="post-header">
    <h1 class="post-title">Described Data</h1>
  </header>

  <div class="post-content">
    <h2 id="abstract">Abstract</h2>

<p>Human-readable descriptions for machine executable operations,
described in higher level machine readable data, so that wallets
can provide meaningful feedback to the user describing the
action the user is about to perform.</p>

<h2 id="motivation">Motivation</h2>

<p>When using an Ethereum Wallet (e.g. MetaMask, Clef, Hardware
Wallets) users must accept and authorize signing messages or
sending transactions.</p>

<p>Due to the complexity of Ethereum transactions, wallets are very
limitd in their ability to provide insight into the contents of
transactions user are approving; outside special-cased support
for common transactions such as ERC20 transfers, this often amounts
to asking the user to sign an opaque blob of binary data.</p>

<p>This EIP presents a method for dapp developers to enable a more
comfortable user experience by providing wallets with a means
to generate a better description about what the contract claims
will happen.</p>

<p>It does not address malicious contracts which wish to lie, it
only addresses honest contracts that want to make their user’s
life better. We believe that this is a reasonable security model,
as transaction descriptions can be audited at the same time as
contract code, allowing auditors and code reviewers to check that
transaction descriptions are accurate as part of their review.</p>

<h2 id="specification">Specification</h2>

<p>The <strong>description string</strong> and <strong>described data</strong> are generated
simultaneously by evaluating the contract
(i.e. the <strong>describer</strong>), passing the <strong>describer inputs</strong> to the 
method:</p>

<div class="language-solidity highlighter-rouge"><div class="highlight"><pre class="highlight"><code><span class="k">function</span> <span class="n">eipXXXDescribe</span><span class="p">(</span><span class="kt">bytes</span> <span class="n">describer_inputs</span><span class="p">)</span> <span class="k">view</span> <span class="k">returns</span> <span class="p">(</span><span class="kt">string</span> <span class="n">description_string</span><span class="p">,</span> <span class="kt">bytes</span> <span class="n">described_data</span><span class="p">);</span>
</code></pre></div></div>

<p>The method must be executable in a static context, (i.e. any
side effects, such as logX, sstore, etc.), including through
indirect calls may be ignored.</p>

<p>During evaluation, the <code class="language-plaintext highlighter-rouge">ADDRESS</code> (i.e. <code class="language-plaintext highlighter-rouge">to</code>), <code class="language-plaintext highlighter-rouge">CALLER</code>
(i.e. <code class="language-plaintext highlighter-rouge">from</code>), <code class="language-plaintext highlighter-rouge">VALUE</code>, and <code class="language-plaintext highlighter-rouge">GASPRICE</code> must be the same as the
values for the transaction being described, so that the
code generating the description can rely on them. For signing
<strong>described messages</strong>, <code class="language-plaintext highlighter-rouge">VALUE</code> should always be 0.</p>

<p>When executing the bytecode, best efforts should be made to
ensure <code class="language-plaintext highlighter-rouge">BLOCKHASH</code>, <code class="language-plaintext highlighter-rouge">NUMBER</code>, <code class="language-plaintext highlighter-rouge">TIMESTAMP</code> and <code class="language-plaintext highlighter-rouge">DIFFICULTY</code>
match the <code class="language-plaintext highlighter-rouge">"latest"</code> block. The <code class="language-plaintext highlighter-rouge">COINBASE</code> should be the zero
address.</p>

<p>The method may revert, in which case the signing must be aborted.</p>

<h3 id="new-json-rpc-methods">New JSON-RPC Methods</h3>

<p>Clients which manage private keys should expose additional
methods for interacting with the related accounts.</p>

<p>If an user interface is not present or expected for any other
account-based operations, the description strings should be
ignored and the described data used directly.</p>

<p>These JSON-RPC methods will also be implemented in standard
Ethereum libraries, so the JSON-RPC description is meant more
of a canonical way to describe them.</p>

<h3 id="signing-described-messages">Signing Described Messages</h3>

<div class="language-solidity highlighter-rouge"><div class="highlight"><pre class="highlight"><code><span class="n">eth_signDescribedMessage</span><span class="p">(</span><span class="kt">address</span><span class="p">,</span> <span class="n">describer</span><span class="p">,</span> <span class="n">describerInput</span><span class="p">)</span>
<span class="c1">// Result: {
//   description: "text/plain;Hello World",
//   data: "0x...", // described data
//   signature: "0x..."
// }
</span></code></pre></div></div>

<p>Compute the <strong>description string</strong> and <strong>described data</strong> by
evaluating the call to <strong>describer</strong>, with the
<strong>describerInput</strong> passed to the ABI encoded call to
<code class="language-plaintext highlighter-rouge">eipXXXDescription(bytes)</code>. The <code class="language-plaintext highlighter-rouge">VALUE</code> during execution must
be 0.</p>

<p>If the wallet contains a user interface for accepting or
denying signing a message, it should present the description
string to the user. Optionally, a wallet may wish to
additionally provide a way to examine the described data.</p>

<p>If accepted, the computed <strong>described data</strong> is signed
according to <a href="./eip-191.md">EIP-191</a>, with the <em>version
byte</em> of <code class="language-plaintext highlighter-rouge">0x00</code> and the <em>version specific data</em> of describer
address.</p>

<p>That is:</p>

<div class="language-plaintext highlighter-rouge"><div class="highlight"><pre class="highlight"><code>0x19   0x00   DESCRIBER_ADDRESS   0xDESCRIBED_DATA
</code></pre></div></div>

<p>The returned result includes the <strong>described data</strong>, allowing
dapps that use parameters computed in the contract to be
available.</p>

<h3 id="sending-described-transactions">Sending Described Transactions</h3>

<div class="language-solidity highlighter-rouge"><div class="highlight"><pre class="highlight"><code><span class="n">eth_sendDescribedTransaction</span><span class="p">(</span><span class="kt">address</span><span class="p">,</span> <span class="p">{</span>
  <span class="n">to</span><span class="o">:</span> <span class="s">"0x..."</span><span class="p">,</span>
  <span class="n">value</span><span class="o">:</span> <span class="mi">1234</span><span class="p">,</span>
  <span class="n">nonce</span><span class="o">:</span> <span class="mi">42</span><span class="p">,</span>
  <span class="n">gas</span><span class="o">:</span> <span class="mi">42000</span><span class="p">,</span>
  <span class="n">gasPrice</span><span class="o">:</span> <span class="mi">9000000000</span><span class="p">,</span>
  <span class="n">describerInput</span><span class="o">:</span> <span class="s">"0x1234..."</span><span class="p">,</span>
<span class="p">})</span>
<span class="c1">// Result: {
//   description: "text/plain;Hello World",
//   transaction: "0x...", // serialized signed transaction
// }
</span></code></pre></div></div>

<p>Compute the <strong>description string</strong> and <strong>described data</strong> by
evaluating the call to the <strong>describer</strong> <code class="language-plaintext highlighter-rouge">to</code>, with the
<strong>describerInput</strong> passed  to the ABI encoded call to
<code class="language-plaintext highlighter-rouge">eipXXXDescription(bytes)</code>.</p>

<p>If the wallet contains a user interface for accepting or
denying a transaction, it should present the description string
along with fee and value information. Optionally, a wallet may
wish to additionally provide a way to further examine the
transaction.</p>

<p>If accepted, the transaction data is set to the computed
<strong>described data</strong>, the derived transaction is signed and sent,
and the <strong>description string</strong> and serialized signed
transaction is returned.</p>

<h3 id="signing-described-transaction">Signing Described Transaction</h3>

<div class="language-solidity highlighter-rouge"><div class="highlight"><pre class="highlight"><code><span class="n">eth_signDescribedTransaction</span><span class="p">(</span><span class="kt">address</span><span class="p">,</span> <span class="p">{</span>
  <span class="n">to</span><span class="o">:</span> <span class="s">"0x..."</span><span class="p">,</span>
  <span class="n">value</span><span class="o">:</span> <span class="mi">1234</span><span class="p">,</span>
  <span class="n">nonce</span><span class="o">:</span> <span class="mi">42</span><span class="p">,</span>
  <span class="n">gas</span><span class="o">:</span> <span class="mi">42000</span><span class="p">,</span>
  <span class="n">gasPrice</span><span class="o">:</span> <span class="mi">9000000000</span><span class="p">,</span>
  <span class="n">describerInput</span><span class="o">:</span> <span class="s">"0x1234..."</span><span class="p">,</span>
<span class="p">})</span>
<span class="c1">// Result: {
//   description: "text/plain;Hello World",
//   transaction: "0x...", // serialized signed transaction
// }
</span></code></pre></div></div>

<p>Compute the <strong>description string</strong> and <strong>described data</strong> by
evaluating the call to the <strong>describer</strong> <code class="language-plaintext highlighter-rouge">to</code>, with the
<strong>describerInput</strong> passed  to the ABI encoded call to
<code class="language-plaintext highlighter-rouge">eipXXXDescription(bytes)</code>.</p>

<p>If the wallet contains a user interface for accepting or
denying a transaction, it should present the description string
along with fee and value information. Optionally, a wallet may
wish to additionally provide a way to further examine the
transaction.</p>

<p>If accepted, the transaction data is set to the computed
<strong>described data</strong>, the derived transaction is signed (and not
sent) and the <strong>description string</strong> and serialized signed
transaction is returned.</p>

<h3 id="description-strings">Description Strings</h3>

<p>A <strong>description string</strong> must begin with a mime-type followed
by a semi-colon (<code class="language-plaintext highlighter-rouge">;</code>). This EIP specifies only the <code class="language-plaintext highlighter-rouge">text/plain</code>
mime-type, but future EIPs may specify additional types to
enable more rich processing, such as <code class="language-plaintext highlighter-rouge">text/markdown</code> so that
addresses can be linkable within clients or to enable
multi-locale options, similar to multipart/form-data.</p>

<h2 id="rationale">Rationale</h2>

<h3 id="meta-description">Meta Description</h3>

<p>There have been many attempts to solve this problem, many of
which attempt to examine the encoded transaction data or
message data directly.</p>

<p>In many cases, the information that would be necessary for a
meaningful description is not present in the final encoded
transaction data or message data.</p>

<p>Instead this EIP uses an indirect description of the data.</p>

<p>For example, the <code class="language-plaintext highlighter-rouge">commit(bytes32)</code> method of ENS places a
commitement <strong>hash</strong> on-chain. The hash contains the
<strong>blinded</strong> name and address; since the name is blinded, the
encoded data (i.e. the hash) no longer contains the original
values and is insufficient to access the necessary values to
be included in a description.</p>

<p>By instead describing the commitment indirectly (with the
original information intact: NAME, ADDRESS and SECRET) a
meaningful description can be computed (e.g. “commit to NAME for ADDRESS (with SECRET)”)
and the matching data can be computed (i.e. <code class="language-plaintext highlighter-rouge">commit(hash(name, owner, secret))</code>).</p>

<h3 id="entangling-the-contract-address">Entangling the Contract Address</h3>

<p>To prevent data being signed from one contract being used
against another, the contract address is entanlged into
both the transaction (implicitly via the <code class="language-plaintext highlighter-rouge">to</code> field) and
in messages by the EIP-191 versions specific data.</p>

<p>The use of the zero address is reserved.</p>

<h3 id="alternatives">Alternatives</h3>

<ul>
  <li>
    <p>NatSpec and company are a class of more complex languages that attempt to describe the encoded data directly. Because of the language complexity they often end up being quite large requiring entire runtime environments with ample processing power and memory, as well as additional sandboxing to reduce security concerns. One goal of this is to reduce the complexity to something that could execute on hardware wallets and other simple wallets. These also describe the data directly, which in many cases (such as blinded data), cannot adequately describe the data at all</p>
  </li>
  <li>
    <p>Custom Languages; due to the complexity of Ethereum transactions, any language used would require a lot of expressiveness and re-inventing the wheel. The EVM already exists (it may not be ideal), but it is there and can handle everything necessary.</p>
  </li>
  <li>
    <p>Format Strings (e.g. Trustless Signing UI Protocol; format strings can only operate on the class of regular languages, which in many cases is insufficient to describe an Ethereum transaction. This was an issue quite often during early attempts at solving this problem.</p>
  </li>
  <li>
    <p>The signTypedData <a href="./eip-712.md">EIP-712</a> has many parallels to what this EIP aims to solve</p>
  </li>
  <li>
    <p>@TODO: More</p>
  </li>
</ul>

<h2 id="backwards-compatibility">Backwards Compatibility</h2>

<p>All signatures for messages are generated using <a href="./eip-191.md">EIP-191</a>
which had a previously compatible version byte of <code class="language-plaintext highlighter-rouge">0x00</code>, so
there should be no concerns with backwards compatibility.</p>

<h2 id="test-cases">Test Cases</h2>

<p>All test cases operate against the published and verified contracts:</p>

<ul>
  <li>Formatter: Ropsten @ 0x7a89c0521604008c93c97aa76950198bca73d933</li>
  <li>TestFormatter: Ropsten @ 0xab3045aa85cbcabb06ed3f3fe968fa5457727270</li>
</ul>

<p>The private key used for signing messages and transactions is:</p>

<div class="language-plaintext highlighter-rouge"><div class="highlight"><pre class="highlight"><code>privateKey = "0x6283185307179586476925286766559005768394338798750211641949889184"
</code></pre></div></div>

<h3 id="messages">Messages</h3>

<p><strong>Example: login with signed message</strong></p>

<ul>
  <li>sends selector login()</li>
  <li>received data with selector doLogin(bytes32 timestamp)</li>
</ul>

<div class="language-plaintext highlighter-rouge"><div class="highlight"><pre class="highlight"><code>Input:
  Address:         0xab3045AA85cBCaBb06eD3F3FE968fA5457727270
  Describer Input: 0xb34e97e800000000000000000000000000000000000000000000000000000000
  i.e.             encode(
                       [ "bytes4" ],
                       [ SEL("login()") ]
                   )

Output:
  Description:     text/plain;Log into ethereum.org?
  Data:            0x14629d78000000000000000000000000000000000000000000000000000000006010d607
  i.e.             encodeWithSelector("doLogin(bytes32)", "0x000000000000000000000000000000000000000000000000000000006010d607" ]

Signing:
  Preimage:  0x1900ab3045aa85cbcabb06ed3f3fe968fa545772727014629d78000000000000000000000000000000000000000000000000000000006010d607
  Signature: 0x8b9def29343c85797a580c5cd3607c06e78a53351219f9ba706b9985c1a3c91e702bf678e07f5daf5ef48b3e3cc581202de233904b72cf2c4f7d714ce92075b21c
</code></pre></div></div>

<h3 id="transactions">Transactions</h3>

<p>All transaction test cases use the ropsten network (chainId: 3)
and for all unspecified properties use 0.</p>

<p><strong>Example: ERC-20 transfer</strong></p>

<div class="language-plaintext highlighter-rouge"><div class="highlight"><pre class="highlight"><code>Input:
  Address:            0xab3045AA85cBCaBb06eD3F3FE968fA5457727270
  Describer Input:    0xa9059cbb000000000000000000000000000000000000000000000000000000000000000000000000000000008ba1f109551bd432803012645ac136ddd64dba720000000000000000000000000000000000000000000000002b992b75cbeb6000
  i.e.                encode(
                          [ "bytes4", "address", "uint"],
                          [ SEL("transfer(address,uint256)"), "0x8ba1f109551bD432803012645Ac136ddd64DBA72", 3.14159e18 ]
                      )
Output:
  Description:        text/plain;Send 3.14159 TOKN to "ricmoose.eth" (0x8ba1f109551bD432803012645Ac136ddd64DBA72)?
  Described Data:     0xa9059cbb0000000000000000000000000000000000000000000000002b992b75cbeb60000000000000000000000000008ba1f109551bd432803012645ac136ddd64dba72
  i.e.                encodeWithSelector("transfer(address,uint256)", "0x8ba1f109551bD432803012645Ac136ddd64DBA72", 3.14159e18)

Signing:
  Signed Transaction: 0xf8a280808094ab3045aa85cbcabb06ed3f3fe968fa545772727080b844a9059cbb0000000000000000000000000000000000000000000000002b992b75cbeb60000000000000000000000000008ba1f109551bd432803012645ac136ddd64dba7229a0f33ea492d326ac32d9b7ae203c61bf7cf0ac576fb0cf8be8e4c63dc89c90de12a06c8efb28aaf3b70c032b3bd1edfc664578c49f040cf749bb19b000da56507fb2
</code></pre></div></div>

<p><strong>Example: ERC-20 approve</strong></p>

<div class="language-plaintext highlighter-rouge"><div class="highlight"><pre class="highlight"><code>Input:
  Address:            0xab3045AA85cBCaBb06eD3F3FE968fA5457727270
  Describer Input:    0x095ea7b3000000000000000000000000000000000000000000000000000000000000000000000000000000008ba1f109551bd432803012645ac136ddd64dba720000000000000000000000000000000000000000000000002b992b75cbeb6000
  i.e.                encode(
                          [ "bytes4", "address", "uint"],
                          [ SEL("approve(address,uint256)"), "0x8ba1f109551bD432803012645Ac136ddd64DBA72", 3.14159e18 ]
                      )

Output:
  Description:        text/plain;Approve "ricmoose.eth" (0x8ba1f109551bD432803012645Ac136ddd64DBA72) to manage 3.14159 TOKN tokens?
  Described Data:     0xa9059cbb0000000000000000000000000000000000000000000000002b992b75cbeb60000000000000000000000000008ba1f109551bd432803012645ac136ddd64dba72
  i.e.                encodeWithSelector("approve(address,uint256)", "0x8ba1f109551bD432803012645Ac136ddd64DBA72", 3.14159e18)

Signing:
  Signed Transaction: 0xf8a280808094ab3045aa85cbcabb06ed3f3fe968fa545772727080b844a9059cbb0000000000000000000000000000000000000000000000002b992b75cbeb60000000000000000000000000008ba1f109551bd432803012645ac136ddd64dba7229a0f33ea492d326ac32d9b7ae203c61bf7cf0ac576fb0cf8be8e4c63dc89c90de12a06c8efb28aaf3b70c032b3bd1edfc664578c49f040cf749bb19b000da56507fb2
</code></pre></div></div>

<p><strong>Example: ENS commit</strong></p>

<div class="language-plaintext highlighter-rouge"><div class="highlight"><pre class="highlight"><code>Input:
  Address:            0xab3045AA85cBCaBb06eD3F3FE968fA5457727270
  Describer Input:    0x0f0e373f000000000000000000000000000000000000000000000000000000000000000000000000000000000000000000000000000000000000000000000080000000000000000000000000e31f43c1d823afaa67a8c5fbb8348176d225a79e65462b0520ef7d3df61b9992ed3bea0c56ead753be7c8b3614e0ce01e4cac41b00000000000000000000000000000000000000000000000000000000000000087269636d6f6f7365000000000000000000000000000000000000000000000000
  i.e.                encode(
                          [ "bytes4", "string", "address", "bytes32"],
                          [ SEL("commit(string,address,bytes32)"), "ricmoose", "0xE31f43C1d823AfAA67A8C5fbB8348176d225A79e", "0x65462b0520ef7d3df61b9992ed3bea0c56ead753be7c8b3614e0ce01e4cac41b" ]
                      )
  
Output:
  Description:        text/plain;Commit to the ENS name "ricmoose.eth" for 0xE31f43C1d823AfAA67A8C5fbB8348176d225A79e?
  Described Data:     0xf14fcbc8e4a4f2bb818545497be34c7ab30e6e87e0001df4ba82e7c8b3f224fbaf255b91
  i.e.                encodeWithSelector("commit(bytes32)", makeCommitment("ricmoose", "0xE31f43C1d823AfAA67A8C5fbB8348176d225A79e", "0x65462b0520ef7d3df61b9992ed3bea0c56ead753be7c8b3614e0ce01e4cac41b"))

Signing:
  Signed Transaction: 0xf88180808094ab3045aa85cbcabb06ed3f3fe968fa545772727080a4f14fcbc8e4a4f2bb818545497be34c7ab30e6e87e0001df4ba82e7c8b3f224fbaf255b912aa0a62b41d1ebda584fe84cf8a05f61b429fe4ec361e13c17f30a23281106b38a8da00bcdd896fe758d8f0cfac46445a48f76f5e9fe27790d67c51412cb98a12a0844
</code></pre></div></div>

<p><strong>Example: WETH mint()</strong></p>

<div class="language-plaintext highlighter-rouge"><div class="highlight"><pre class="highlight"><code>Input:
  Address:            0xab3045AA85cBCaBb06eD3F3FE968fA5457727270
  Describer Input:    0x1249c58b00000000000000000000000000000000000000000000000000000000
  i.e.                encode(
                          [ "bytes4" ],
                          [ SEL("mint()") ]
                      )
  Value:              1.23 ether

Output:
  Description:        text/plain;Mint 1.23 WETH (spending 1.23 ether)?
  Described Data:     0x1249c58b
  i.e.                encodeWithSelector("mint()")

Signing:
  Signed Transaction: 0xf86980808094ab3045aa85cbcabb06ed3f3fe968fa5457727270881111d67bb1bb0000841249c58b29a012df802e1394a97caab23c15c3a8c931668df4b2d6d604ca23f3f6b836d0aafca0071a2aebef6a9848616b4d618912f2003fb4babde3dba451b5246f866281a654
</code></pre></div></div>

<h2 id="reference-implementation">Reference Implementation</h2>

<p>@TODO (consider adding it as one or more files in <code class="language-plaintext highlighter-rouge">../assets/eip-####/</code>)</p>

<p>I will add examples in Solidity and JavaScript.</p>

<h2 id="security-considerations">Security Considerations</h2>

<h3 id="escaping-text">Escaping Text</h3>

<p>Wallets must be careful when displaying text provided by
contracts and proper efforts must be taken to sanitize
it, for example, be sure to consider:</p>

<ul>
  <li>HTML could be embedded to attempt to trick web-based wallets into executing code using the script tag (possibly uploading any private keys to a server)</li>
  <li>In general, extreme care must be used when rendering HTML; consider the ENS names <code class="language-plaintext highlighter-rouge">&lt;span style="display:none"&gt;not-&lt;/span&gt;ricmoo.eth</code> or <code class="language-plaintext highlighter-rouge">&amp;thinsp;ricmoo.eth</code>, which if rendered without care would appear as <code class="language-plaintext highlighter-rouge">ricmoo.eth</code>, which it is not</li>
  <li>Other marks which require escaping could be included, such as quotes (<code class="language-plaintext highlighter-rouge">"</code>), formatting (<code class="language-plaintext highlighter-rouge">\n</code> (new line), <code class="language-plaintext highlighter-rouge">\f</code> (form feed), <code class="language-plaintext highlighter-rouge">\t</code> (tab), any of many non-standard whitespaces), back-slassh (<code class="language-plaintext highlighter-rouge">\</code>)</li>
  <li>UTF-8 has had bugs in the past which could allow arbitrary code execution and crashing renderers; consider using the UTF-8 replacement character (or <em>something</em>) for code-points outside common planes or common sub-sets within planes</li>
  <li>Homoglyphs attacks</li>
  <li>Right-to-left marks may affect rendering</li>
  <li>Many other things, deplnding on your environment</li>
</ul>

<h3 id="distinguished-signed-data">Distinguished Signed Data</h3>

<p>Applications implementing this EIP to sign message data should
ensure there are no collisions within the data which could
result in ambiguously signed data.</p>

<p>@TODO: Expand on this; compare packed data to ABI encoded data?</p>

<h3 id="enumeration">Enumeration</h3>

<p>If an abort occurs during signing, the response from this call
should match the response from a declined signing request;
otherwise this could be used for enumeration attacks, etc. A
random interactive-scale delay should also be added, otherwise
a &lt; 10ms response could be interpreted as an error.</p>

<h3 id="replayablility">Replayablility</h3>

<p>Transactions contain an explicit nonce, but signed messages do
not.</p>

<p>For many purposes, such as signing in, a nonce could be
injected (using block.timestamp) into the data. The log in
service can verify this is a recent timestamp. The timestamp
may or may not be omitted from the description string in this
case, as it it largely useful internally only.</p>

<p>In general, when signing messages a nonce often makes sense to
include to prevent the same signed data from being used in the
future.</p>

<h2 id="copyright">Copyright</h2>

<p>Copyright and related rights waived via <a href="/LICENSE">CC0</a>.</p>

  </div>

</article>

      </div>
    </main><footer class="site-footer h-card">
  <data class="u-url" href="/"></data>

  <div class="wrapper">

    <h2 class="footer-heading">Ethereum Improvement Proposals</h2>

    <div class="footer-col-wrapper">
      <div class="footer-col footer-col-1">
        <ul class="contact-list">
          <li class="p-name">Ethereum Improvement Proposals</li></ul>
      </div>

      <div class="footer-col footer-col-2"><ul class="social-media-list"><li><a href="https://github.com/ethereum/EIPs"><svg class="svg-icon"><use xlink:href="/assets/minima-social-icons.svg#github"></use></svg> <span class="username">ethereum/EIPs</span></a></li></ul>
</div>

      <div class="footer-col footer-col-3">
        <p>Ethereum Improvement Proposals (EIPs) describe standards for the Ethereum platform, including core protocol specifications, client APIs, and contract standards.</p>
      </div>
    </div>

  </div>

</footer>
</body>

</html>
